{
  "_format": "hh-sol-artifact-1",
  "contractName": "insurance",
  "sourceName": "contracts/insurance.sol",
  "abi": [
    {
      "anonymous": false,
      "inputs": [
        {
          "indexed": true,
          "internalType": "uint256",
          "name": "policyId",
          "type": "uint256"
        },
        {
          "indexed": false,
          "internalType": "uint256",
          "name": "timestamp",
          "type": "uint256"
        }
      ],
      "name": "PolicyBought",
      "type": "event"
    },
    {
      "inputs": [],
      "name": "buyInsurance",
      "outputs": [
        {
          "internalType": "uint256",
          "name": "",
          "type": "uint256"
        }
      ],
      "stateMutability": "nonpayable",
      "type": "function"
    },
    {
      "inputs": [],
      "name": "policyCount",
      "outputs": [
        {
          "internalType": "uint256",
          "name": "",
          "type": "uint256"
        }
      ],
      "stateMutability": "view",
      "type": "function"
    }
  ],
  "bytecode": "608060405234801561001057600080fd5b5033600360006101000a81548173ffffffffffffffffffffffffffffffffffffffff021916908373ffffffffffffffffffffffffffffffffffffffff160217905550610d56806100616000396000f3fe6080604052600436106100865760003560e01c806373f167511161005957806373f167511461016d578063c1260c9a14610198578063c6788bdd146101b4578063d61909f9146101f1578063dbb773d91461021a57610086565b806320e986981461008b5780633791dc6a146100c85780634cd3723a146101055780634d21af9614610142575b600080fd5b34801561009757600080fd5b506100b260048036038101906100ad9190610840565b610243565b6040516100bf9190610886565b60405180910390f35b3480156100d457600080fd5b506100ef60048036038101906100ea9190610840565b61025b565b6040516100fc9190610886565b60405180910390f35b34801561011157600080fd5b5061012c60048036038101906101279190610840565b6102a4565b6040516101399190610886565b60405180910390f35b34801561014e57600080fd5b506101576102ed565b6040516101649190610886565b60405180910390f35b34801561017957600080fd5b506101826102f3565b60405161018f9190610886565b60405180910390f35b6101b260048036038101906101ad91906108cd565b6102fd565b005b3480156101c057600080fd5b506101db60048036038101906101d69190610840565b610445565b6040516101e89190610886565b60405180910390f35b3480156101fd57600080fd5b50610218600480360381019061021391906108cd565b61045d565b005b34801561022657600080fd5b50610241600480360381019061023c9190610840565b6105fd565b005b60016020528060005260406000206000915090505481565b6000600160008373ffffffffffffffffffffffffffffffffffffffff1673ffffffffffffffffffffffffffffffffffffffff168152602001908152602001600020549050919050565b6000600260008373ffffffffffffffffffffffffffffffffffffffff1673ffffffffffffffffffffffffffffffffffffffff168152602001908152602001600020549050919050565b60045481565b6000600454905090565b80341461033f576040517f08c379a000000000000000000000000000000000000000000000000000000000815260040161033690610957565b60405180910390fd5b60008111610382576040517f08c379a0000000000000000000000000000000000000000000000000000000008152600401610379906109e9565b60405180910390fd5b6000339080600181540180825580915050600190039060005260206000200160009091909190916101000a81548173ffffffffffffffffffffffffffffffffffffffff021916908373ffffffffffffffffffffffffffffffffffffffff16021790555080600160003373ffffffffffffffffffffffffffffffffffffffff1673ffffffffffffffffffffffffffffffffffffffff16815260200190815260200160002081905550806004600082825461043b9190610a38565b9250508190555050565b60026020528060005260406000206000915090505481565b6000600160003373ffffffffffffffffffffffffffffffffffffffff1673ffffffffffffffffffffffffffffffffffffffff16815260200190815260200160002054116104df576040517f08c379a00000000000000000000000000000000000000000000000000000000081526004016104d690610ade565b60405180910390fd5b60008111610522576040517f08c379a000000000000000000000000000000000000000000000000000000000815260040161051990610b4a565b60405180910390fd5b600160003373ffffffffffffffffffffffffffffffffffffffff1673ffffffffffffffffffffffffffffffffffffffff168152602001908152602001600020548111156105a4576040517f08c379a000000000000000000000000000000000000000000000000000000000815260040161059b90610bdc565b60405180910390fd5b80600260003373ffffffffffffffffffffffffffffffffffffffff1673ffffffffffffffffffffffffffffffffffffffff16815260200190815260200160002060008282546105f39190610a38565b9250508190555050565b600360009054906101000a900473ffffffffffffffffffffffffffffffffffffffff1673ffffffffffffffffffffffffffffffffffffffff163373ffffffffffffffffffffffffffffffffffffffff161461068d576040517f08c379a000000000000000000000000000000000000000000000000000000000815260040161068490610c6e565b60405180910390fd5b6000600260008373ffffffffffffffffffffffffffffffffffffffff1673ffffffffffffffffffffffffffffffffffffffff168152602001908152602001600020541161070f576040517f08c379a000000000000000000000000000000000000000000000000000000000815260040161070690610d00565b60405180910390fd5b8073ffffffffffffffffffffffffffffffffffffffff166108fc600260008473ffffffffffffffffffffffffffffffffffffffff1673ffffffffffffffffffffffffffffffffffffffff168152602001908152602001600020549081150290604051600060405180830381858888f19350505050158015610794573d6000803e3d6000fd5b506000600260008373ffffffffffffffffffffffffffffffffffffffff1673ffffffffffffffffffffffffffffffffffffffff1681526020019081526020016000208190555050565b600080fd5b600073ffffffffffffffffffffffffffffffffffffffff82169050919050565b600061080d826107e2565b9050919050565b61081d81610802565b811461082857600080fd5b50565b60008135905061083a81610814565b92915050565b600060208284031215610856576108556107dd565b5b60006108648482850161082b565b91505092915050565b6000819050919050565b6108808161086d565b82525050565b600060208201905061089b6000830184610877565b92915050565b6108aa8161086d565b81146108b557600080fd5b50565b6000813590506108c7816108a1565b92915050565b6000602082840312156108e3576108e26107dd565b5b60006108f1848285016108b8565b91505092915050565b600082825260208201905092915050565b7f496e636f7272656374207072656d69756d20616d6f756e742e00000000000000600082015250565b60006109416019836108fa565b915061094c8261090b565b602082019050919050565b6000602082019050818103600083015261097081610934565b9050919050565b7f5072656d69756d20616d6f756e74206d7573742062652067726561746572207460008201527f68616e2030000000000000000000000000000000000000000000000000000000602082015250565b60006109d36025836108fa565b91506109de82610977565b604082019050919050565b60006020820190508181036000830152610a02816109c6565b9050919050565b7f4e487b7100000000000000000000000000000000000000000000000000000000600052601160045260246000fd5b6000610a438261086d565b9150610a4e8361086d565b9250828201905080821115610a6657610a65610a09565b5b92915050565b7f4d757374206861766520612076616c696420706f6c69637920746f2066696c6560008201527f206120636c61696d2e0000000000000000000000000000000000000000000000602082015250565b6000610ac86029836108fa565b9150610ad382610a6c565b604082019050919050565b60006020820190508181036000830152610af781610abb565b9050919050565b7f436c61696d206d7573742062652067726561746572207468616e20302e000000600082015250565b6000610b34601d836108fa565b9150610b3f82610afe565b602082019050919050565b60006020820190508181036000830152610b6381610b27565b9050919050565b7f436c61696d20616d6f756e742063616e6e6f742065786365656420706f6c696360008201527f79206c696d69742e000000000000000000000000000000000000000000000000602082015250565b6000610bc66028836108fa565b9150610bd182610b6a565b604082019050919050565b60006020820190508181036000830152610bf581610bb9565b9050919050565b7f4f6e6c7920746865206f776e65722063616e20617070726f766520636c61696d60008201527f732e000000000000000000000000000000000000000000000000000000000000602082015250565b6000610c586022836108fa565b9150610c6382610bfc565b604082019050919050565b60006020820190508181036000830152610c8781610c4b565b9050919050565b7f506f6c69637920486f6c64657220686173206e6f206f75747374616e64696e6760008201527f20636c61696d732e000000000000000000000000000000000000000000000000602082015250565b6000610cea6028836108fa565b9150610cf582610c8e565b604082019050919050565b60006020820190508181036000830152610d1981610cdd565b905091905056fea26469706673582212203c0cf8fbc87037f404a3a025286ac15d473a9cc2ac4d0fbfaef0a074287fdeb964736f6c63430008120033",
  "deployedBytecode": "0x6080604052600436106100345760003560e01c8063204206e1146100395780633aaa74b214610055578063865c51721461006c575b600080fd5b610053600480360381019061004e919061056d565b610097565b005b34801561006157600080fd5b5061006a61021f565b005b34801561007857600080fd5b5061008161027f565b60405161008e919061078e565b60405180910390f35b600034116100da576040517f08c379a00000000000000000000000000000000000000000000000000000000081526004016100d1906107b0565b60405180910390fd5b600160405180608001604052803373ffffffffffffffffffffffffffffffffffffffff16815260200142815260200184815260200183815250908060018154018082558091505060019003906000526020600020906004020160009091909190915060008201518160000160006101000a81548173ffffffffffffffffffffffffffffffffffffffff021916908373ffffffffffffffffffffffffffffffffffffffff1602179055506020820151816001015560408201518160020190805190602001906101a9929190610462565b5060608201518160030190805190602001906101c6929190610462565b5050503373ffffffffffffffffffffffffffffffffffffffff167fc56140e05f516509ae28110e0f72e17558a7561630dad2647c3ae87d986e365c428484604051610213939291906107d0565b60405180910390a25050565b60008054906101000a900473ffffffffffffffffffffffffffffffffffffffff1673ffffffffffffffffffffffffffffffffffffffff166108fc479081150290604051600060405180830381858888f1935050505061027d57600080fd5b565b60606001805480602002602001604051908101604052809291908181526020016000905b8282101561045957838290600052602060002090600402016040518060800160405290816000820160009054906101000a900473ffffffffffffffffffffffffffffffffffffffff1673ffffffffffffffffffffffffffffffffffffffff1673ffffffffffffffffffffffffffffffffffffffff168152602001600182015481526020016002820180546103369061094f565b80601f01602080910402602001604051908101604052809291908181526020018280546103629061094f565b80156103af5780601f10610384576101008083540402835291602001916103af565b820191906000526020600020905b81548152906001019060200180831161039257829003601f168201915b505050505081526020016003820180546103c89061094f565b80601f01602080910402602001604051908101604052809291908181526020018280546103f49061094f565b80156104415780601f1061041657610100808354040283529160200191610441565b820191906000526020600020905b81548152906001019060200180831161042457829003601f168201915b505050505081525050815260200190600101906102a3565b50505050905090565b82805461046e9061094f565b90600052602060002090601f01602090048101928261049057600085556104d7565b82601f106104a957805160ff19168380011785556104d7565b828001600101855582156104d7579182015b828111156104d65782518255916020019190600101906104bb565b5b5090506104e491906104e8565b5090565b5b808211156105015760008160009055506001016104e9565b5090565b60006105186105138461083a565b610815565b90508281526020810184848401111561053057600080fd5b61053b84828561090d565b509392505050565b600082601f83011261055457600080fd5b8135610564848260208601610505565b91505092915050565b6000806040838503121561058057600080fd5b600083013567ffffffffffffffff81111561059a57600080fd5b6105a685828601610543565b925050602083013567ffffffffffffffff8111156105c357600080fd5b6105cf85828601610543565b9150509250929050565b60006105e58383610706565b905092915050565b6105f6816108d1565b82525050565b60006106078261087b565b610611818561089e565b9350836020820285016106238561086b565b8060005b8581101561065f578484038952815161064085826105d9565b945061064b83610891565b925060208a01995050600181019050610627565b50829750879550505050505092915050565b600061067c82610886565b61068681856108af565b935061069681856020860161091c565b61069f81610a10565b840191505092915050565b60006106b582610886565b6106bf81856108c0565b93506106cf81856020860161091c565b6106d881610a10565b840191505092915050565b60006106f0601a836108c0565b91506106fb82610a21565b602082019050919050565b600060808301600083015161071e60008601826105ed565b5060208301516107316020860182610770565b50604083015184820360408601526107498282610671565b915050606083015184820360608601526107638282610671565b9150508091505092915050565b61077981610903565b82525050565b61078881610903565b82525050565b600060208201905081810360008301526107a881846105fc565b905092915050565b600060208201905081810360008301526107c9816106e3565b9050919050565b60006060820190506107e5600083018661077f565b81810360208301526107f781856106aa565b9050818103604083015261080b81846106aa565b9050949350505050565b600061081f610830565b905061082b8282610981565b919050565b6000604051905090565b600067ffffffffffffffff821115610855576108546109e1565b5b61085e82610a10565b9050602081019050919050565b6000819050602082019050919050565b600081519050919050565b600081519050919050565b6000602082019050919050565b600082825260208201905092915050565b600082825260208201905092915050565b600082825260208201905092915050565b60006108dc826108e3565b9050919050565b600073ffffffffffffffffffffffffffffffffffffffff82169050919050565b6000819050919050565b82818337600083830152505050565b60005b8381101561093a57808201518184015260208101905061091f565b83811115610949576000848401525b50505050565b6000600282049050600182168061096757607f821691505b6020821081141561097b5761097a6109b2565b5b50919050565b61098a82610a10565b810181811067ffffffffffffffff821117156109a9576109a86109e1565b5b80604052505050565b7f4e487b7100000000000000000000000000000000000000000000000000000000600052602260045260246000fd5b7f4e487b7100000000000000000000000000000000000000000000000000000000600052604160045260246000fd5b6000601f19601f8301169050919050565b7f63616e27742062757920636f6666656520666f7220667265652100000000000060008201525056fea26469706673582212204d736444c03df55cda9ab5ff420cbbf462e6f6843a41f5ee8c6661ba2117518464736f6c63430008040033",
  "linkReferences": {},
  "deployedLinkReferences": {}
}